{
  "contractName": "AgreementRegistry",
  "abi": [
    {
      "anonymous": false,
      "inputs": [
        {
          "indexed": true,
          "name": "creator",
          "type": "address"
        },
        {
          "indexed": true,
          "name": "contractor",
          "type": "address"
        },
        {
          "indexed": false,
          "name": "balance",
          "type": "uint256"
        },
        {
          "indexed": false,
          "name": "agreementAddress",
          "type": "address"
        }
      ],
      "name": "AgreementCreated",
      "type": "event"
    },
    {
      "constant": false,
      "inputs": [
        {
          "name": "_contractor",
          "type": "address"
        }
      ],
      "name": "startAgreement",
      "outputs": [
        {
          "name": "",
          "type": "address"
        }
      ],
      "payable": true,
      "stateMutability": "payable",
      "type": "function"
    }
  ],
  "bytecode": "0x6060604052341561000f57600080fd5b61131d8061001e6000396000f300606060405260043610610041576000357c0100000000000000000000000000000000000000000000000000000000900463ffffffff168063360c5f0614610046575b600080fd5b610072600480803573ffffffffffffffffffffffffffffffffffffffff169060200190919050506100b4565b604051808273ffffffffffffffffffffffffffffffffffffffff1673ffffffffffffffffffffffffffffffffffffffff16815260200191505060405180910390f35b6000806000341180156100f45750600073ffffffffffffffffffffffffffffffffffffffff168373ffffffffffffffffffffffffffffffffffffffff1614155b15156100ff57600080fd5b338361010961030b565b808373ffffffffffffffffffffffffffffffffffffffff1673ffffffffffffffffffffffffffffffffffffffff1681526020018273ffffffffffffffffffffffffffffffffffffffff1673ffffffffffffffffffffffffffffffffffffffff16815260200192505050604051809103906000f080151561018857600080fd5b90506000803373ffffffffffffffffffffffffffffffffffffffff1673ffffffffffffffffffffffffffffffffffffffff16815260200190815260200160002080548060010182816101da919061031b565b9160005260206000209001600083909190916101000a81548173ffffffffffffffffffffffffffffffffffffffff021916908373ffffffffffffffffffffffffffffffffffffffff160217905550508073ffffffffffffffffffffffffffffffffffffffff166108fc349081150290604051600060405180830381858888f19350505050151561026957600080fd5b8273ffffffffffffffffffffffffffffffffffffffff163373ffffffffffffffffffffffffffffffffffffffff167fcb6c69f61021dfec3aa0e1a0574f213271e9e164a6cb2c28f4de77d42c9bd44f3484604051808381526020018273ffffffffffffffffffffffffffffffffffffffff1673ffffffffffffffffffffffffffffffffffffffff1681526020019250505060405180910390a380915050919050565b604051610f858061036d83390190565b815481835581811511610342578183600052602060002091820191016103419190610347565b5b505050565b61036991905b8082111561036557600081600090555060010161034d565b5090565b9056006060604052604051604080610f8583398101604052808051906020019091908051906020019091905050816000806101000a81548173ffffffffffffffffffffffffffffffffffffffff021916908373ffffffffffffffffffffffffffffffffffffffff16021790555080600160006101000a81548173ffffffffffffffffffffffffffffffffffffffff021916908373ffffffffffffffffffffffffffffffffffffffff1602179055505050610eca806100bb6000396000f3006060604052600436106100a4576000357c0100000000000000000000000000000000000000000000000000000000900463ffffffff16806302d05d3f146100a657806312065fe0146100fb578063194307bf1461012457806355e1d6b61461015157806367ea3f6d1461016657806367fe5a0c14610193578063b1c438fe146101c0578063dac96d4a146101ed578063fbfd204514610202578063fd26f03714610257575b005b34156100b157600080fd5b6100b961026c565b604051808273ffffffffffffffffffffffffffffffffffffffff1673ffffffffffffffffffffffffffffffffffffffff16815260200191505060405180910390f35b341561010657600080fd5b61010e610291565b6040518082815260200191505060405180910390f35b341561012f57600080fd5b6101376102b0565b604051808215151515815260200191505060405180910390f35b341561015c57600080fd5b6101646102c3565b005b341561017157600080fd5b6101796105a7565b604051808215151515815260200191505060405180910390f35b341561019e57600080fd5b6101a66105ba565b604051808215151515815260200191505060405180910390f35b34156101cb57600080fd5b6101d36105cd565b604051808215151515815260200191505060405180910390f35b34156101f857600080fd5b6102006105e0565b005b341561020d57600080fd5b6102156106b2565b604051808273ffffffffffffffffffffffffffffffffffffffff1673ffffffffffffffffffffffffffffffffffffffff16815260200191505060405180910390f35b341561026257600080fd5b61026a6106d8565b005b6000809054906101000a900473ffffffffffffffffffffffffffffffffffffffff1681565b60003073ffffffffffffffffffffffffffffffffffffffff1631905090565b600160179054906101000a900460ff1681565b6000600160009054906101000a900473ffffffffffffffffffffffffffffffffffffffff1673ffffffffffffffffffffffffffffffffffffffff163373ffffffffffffffffffffffffffffffffffffffff16148061036d57506000809054906101000a900473ffffffffffffffffffffffffffffffffffffffff1673ffffffffffffffffffffffffffffffffffffffff163373ffffffffffffffffffffffffffffffffffffffff16145b151561037857600080fd5b600160179054906101000a900460ff1615151561039457600080fd5b6000809054906101000a900473ffffffffffffffffffffffffffffffffffffffff16600160009054906101000a900473ffffffffffffffffffffffffffffffffffffffff166103e1610a5c565b808373ffffffffffffffffffffffffffffffffffffffff1673ffffffffffffffffffffffffffffffffffffffff1681526020018273ffffffffffffffffffffffffffffffffffffffff1673ffffffffffffffffffffffffffffffffffffffff16815260200192505050604051809103906000f080151561046057600080fd5b90508073ffffffffffffffffffffffffffffffffffffffff166108fc3073ffffffffffffffffffffffffffffffffffffffff16319081150290604051600060405180830381858888f1935050505015156104b957600080fd5b600160009054906101000a900473ffffffffffffffffffffffffffffffffffffffff1673ffffffffffffffffffffffffffffffffffffffff166000809054906101000a900473ffffffffffffffffffffffffffffffffffffffff1673ffffffffffffffffffffffffffffffffffffffff163073ffffffffffffffffffffffffffffffffffffffff167f8f9f2bdc3b1455f68d37ffe41a3164eb7e56d0caeec0fc961fe6bd6aabf0804e84604051808273ffffffffffffffffffffffffffffffffffffffff1673ffffffffffffffffffffffffffffffffffffffff16815260200191505060405180910390a450565b600160169054906101000a900460ff1681565b600160149054906101000a900460ff1681565b600160159054906101000a900460ff1681565b600160009054906101000a900473ffffffffffffffffffffffffffffffffffffffff1673ffffffffffffffffffffffffffffffffffffffff163373ffffffffffffffffffffffffffffffffffffffff1614151561063c57600080fd5b60018060146101000a81548160ff0219169083151502179055503373ffffffffffffffffffffffffffffffffffffffff163073ffffffffffffffffffffffffffffffffffffffff167f0cb37842db419ea171cc5183b8bbf44cffad4627471de7247b991c649699052e60405160405180910390a3565b600160009054906101000a900473ffffffffffffffffffffffffffffffffffffffff1681565b600160009054906101000a900473ffffffffffffffffffffffffffffffffffffffff1673ffffffffffffffffffffffffffffffffffffffff163373ffffffffffffffffffffffffffffffffffffffff16148061078057506000809054906101000a900473ffffffffffffffffffffffffffffffffffffffff1673ffffffffffffffffffffffffffffffffffffffff163373ffffffffffffffffffffffffffffffffffffffff16145b151561078b57600080fd5b600160179054906101000a900460ff161515156107a757600080fd5b600160009054906101000a900473ffffffffffffffffffffffffffffffffffffffff1673ffffffffffffffffffffffffffffffffffffffff163373ffffffffffffffffffffffffffffffffffffffff1614156108815760018060166101000a81548160ff021916908315150217905550600160009054906101000a900473ffffffffffffffffffffffffffffffffffffffff1673ffffffffffffffffffffffffffffffffffffffff167f5cca47fc45be2c2c68100afd7cd2431116c0c535c159e4f6c7e63934cf9f7aad60405160405180910390a2610956565b6000809054906101000a900473ffffffffffffffffffffffffffffffffffffffff1673ffffffffffffffffffffffffffffffffffffffff163373ffffffffffffffffffffffffffffffffffffffff1614156109555760018060156101000a81548160ff0219169083151502179055506000809054906101000a900473ffffffffffffffffffffffffffffffffffffffff1673ffffffffffffffffffffffffffffffffffffffff167f5cca47fc45be2c2c68100afd7cd2431116c0c535c159e4f6c7e63934cf9f7aad60405160405180910390a25b5b600160169054906101000a900460ff16801561097e5750600160159054906101000a900460ff165b15610a5a57600160009054906101000a900473ffffffffffffffffffffffffffffffffffffffff1673ffffffffffffffffffffffffffffffffffffffff166108fc3073ffffffffffffffffffffffffffffffffffffffff16319081150290604051600060405180830381858888f1935050505015156109fc57600080fd5b60018060176101000a81548160ff0219169083151502179055503073ffffffffffffffffffffffffffffffffffffffff167f0cb7f2c80cbc4263079ffcaa0cdbf888607cbdce2c24ff4e4da6b62cbb7e39c260405160405180910390a25b565b60405161043280610a6d833901905600606060405260405160408061043283398101604052808051906020019091908051906020019091905050816000806101000a81548173ffffffffffffffffffffffffffffffffffffffff021916908373ffffffffffffffffffffffffffffffffffffffff16021790555080600160006101000a81548173ffffffffffffffffffffffffffffffffffffffff021916908373ffffffffffffffffffffffffffffffffffffffff1602179055505050610377806100bb6000396000f30060606040526004361061006d576000357c0100000000000000000000000000000000000000000000000000000000900463ffffffff16806302d05d3f1461006f57806307400d65146100c457806345c63376146100fd5780636d0501f614610136578063fbfd20451461018b575b005b341561007a57600080fd5b6100826101e0565b604051808273ffffffffffffffffffffffffffffffffffffffff1673ffffffffffffffffffffffffffffffffffffffff16815260200191505060405180910390f35b34156100cf57600080fd5b6100fb600480803573ffffffffffffffffffffffffffffffffffffffff16906020019091905050610205565b005b341561010857600080fd5b610134600480803573ffffffffffffffffffffffffffffffffffffffff16906020019091905050610282565b005b341561014157600080fd5b6101496102ff565b604051808273ffffffffffffffffffffffffffffffffffffffff1673ffffffffffffffffffffffffffffffffffffffff16815260200191505060405180910390f35b341561019657600080fd5b61019e610325565b604051808273ffffffffffffffffffffffffffffffffffffffff1673ffffffffffffffffffffffffffffffffffffffff16815260200191505060405180910390f35b6000809054906101000a900473ffffffffffffffffffffffffffffffffffffffff1681565b3073ffffffffffffffffffffffffffffffffffffffff167f6b28ec5496514c9bb0063df3a6ec0ef088ed8266554367c8df1ee20f5e562a2f82604051808273ffffffffffffffffffffffffffffffffffffffff1673ffffffffffffffffffffffffffffffffffffffff16815260200191505060405180910390a250565b3073ffffffffffffffffffffffffffffffffffffffff167f124fa3ac65ebd4c7b43bf696f8c5164598606c830ba6d0c1ac819155dbd2e05a82604051808273ffffffffffffffffffffffffffffffffffffffff1673ffffffffffffffffffffffffffffffffffffffff16815260200191505060405180910390a250565b600260009054906101000a900473ffffffffffffffffffffffffffffffffffffffff1681565b600160009054906101000a900473ffffffffffffffffffffffffffffffffffffffff16815600a165627a7a7230582094686d31b307d7a591586669edff738525eb14acf25b6fa8aa34523dd9bf786f0029a165627a7a723058202ea3d5a593803cf73b297d84d26cf88b9c7c2d0405c686b3b7cbb1376a253ccd0029a165627a7a7230582049935e4dc8cca498ede46c29d67680b8fb1d21b57da3557d8d4824bfc0f7fbe50029",
  "source": "import \"./Agreement.sol\";\n\npragma solidity ^0.4.18;\n\ncontract AgreementRegistry {\n\n    mapping (address => address[]) agreements;\n\n    // EVENTS\n    event AgreementCreated(address indexed creator, address indexed contractor, uint balance, address agreementAddress);\n\n    function startAgreement(address _contractor) public payable returns (address) {\n\n        require(msg.value > 0 && _contractor != address(0));\n\n        Agreement agreement = new Agreement(msg.sender, _contractor);\n\n        agreements[msg.sender].push(agreement);\n\n        agreement.transfer(msg.value);\n\n        AgreementCreated(msg.sender, _contractor, msg.value, agreement);\n\n        return address(agreement);\n\n    }\n\n}\n",
  "sourcePath": "/Users/WilliamHuang/Documents/agreement_mediation/contracts/AgreementRegistry.sol",
  "compiler": {
    "name": "solc",
    "version": "0.4.19+commit.c4cbbb05.Emscripten.clang"
  },
  "schemaVersion": "1.0.1",
  "updatedAt": "2018-02-17T19:12:53.406Z"
}