{
  "contractName": "Agreement",
  "abi": [
    {
      "constant": true,
      "inputs": [],
      "name": "creator",
      "outputs": [
        {
          "name": "",
          "type": "address"
        }
      ],
      "payable": false,
      "stateMutability": "view",
      "type": "function"
    },
    {
      "constant": true,
      "inputs": [],
      "name": "terminated",
      "outputs": [
        {
          "name": "",
          "type": "bool"
        }
      ],
      "payable": false,
      "stateMutability": "view",
      "type": "function"
    },
    {
      "constant": true,
      "inputs": [],
      "name": "contractorAccepted",
      "outputs": [
        {
          "name": "",
          "type": "bool"
        }
      ],
      "payable": false,
      "stateMutability": "view",
      "type": "function"
    },
    {
      "constant": true,
      "inputs": [],
      "name": "accepted",
      "outputs": [
        {
          "name": "",
          "type": "bool"
        }
      ],
      "payable": false,
      "stateMutability": "view",
      "type": "function"
    },
    {
      "constant": true,
      "inputs": [],
      "name": "creatorAccepted",
      "outputs": [
        {
          "name": "",
          "type": "bool"
        }
      ],
      "payable": false,
      "stateMutability": "view",
      "type": "function"
    },
    {
      "constant": true,
      "inputs": [],
      "name": "contractor",
      "outputs": [
        {
          "name": "",
          "type": "address"
        }
      ],
      "payable": false,
      "stateMutability": "view",
      "type": "function"
    },
    {
      "inputs": [
        {
          "name": "_creator",
          "type": "address"
        },
        {
          "name": "_contractor",
          "type": "address"
        }
      ],
      "payable": true,
      "stateMutability": "payable",
      "type": "constructor"
    },
    {
      "payable": true,
      "stateMutability": "payable",
      "type": "fallback"
    },
    {
      "anonymous": false,
      "inputs": [
        {
          "indexed": true,
          "name": "agreementAddress",
          "type": "address"
        },
        {
          "indexed": true,
          "name": "contractorAddress",
          "type": "address"
        }
      ],
      "name": "AgreementInitiated",
      "type": "event"
    },
    {
      "anonymous": false,
      "inputs": [
        {
          "indexed": true,
          "name": "signee",
          "type": "address"
        }
      ],
      "name": "AgreementSigned",
      "type": "event"
    },
    {
      "anonymous": false,
      "inputs": [
        {
          "indexed": true,
          "name": "agreementAddress",
          "type": "address"
        }
      ],
      "name": "AgreementTerminated",
      "type": "event"
    },
    {
      "anonymous": false,
      "inputs": [
        {
          "indexed": true,
          "name": "agreementAddress",
          "type": "address"
        },
        {
          "indexed": true,
          "name": "creator",
          "type": "address"
        },
        {
          "indexed": true,
          "name": "contractor",
          "type": "address"
        },
        {
          "indexed": false,
          "name": "mediationAddress",
          "type": "address"
        }
      ],
      "name": "MediationStarted",
      "type": "event"
    },
    {
      "constant": false,
      "inputs": [],
      "name": "acceptAgreement",
      "outputs": [],
      "payable": false,
      "stateMutability": "nonpayable",
      "type": "function"
    },
    {
      "constant": false,
      "inputs": [],
      "name": "endAgreement",
      "outputs": [],
      "payable": false,
      "stateMutability": "nonpayable",
      "type": "function"
    },
    {
      "constant": false,
      "inputs": [],
      "name": "startMediation",
      "outputs": [],
      "payable": false,
      "stateMutability": "nonpayable",
      "type": "function"
    },
    {
      "constant": true,
      "inputs": [],
      "name": "getBalance",
      "outputs": [
        {
          "name": "",
          "type": "uint256"
        }
      ],
      "payable": false,
      "stateMutability": "view",
      "type": "function"
    }
  ],
  "bytecode": "0x6060604052604051604080610f8583398101604052808051906020019091908051906020019091905050816000806101000a81548173ffffffffffffffffffffffffffffffffffffffff021916908373ffffffffffffffffffffffffffffffffffffffff16021790555080600160006101000a81548173ffffffffffffffffffffffffffffffffffffffff021916908373ffffffffffffffffffffffffffffffffffffffff1602179055505050610eca806100bb6000396000f3006060604052600436106100a4576000357c0100000000000000000000000000000000000000000000000000000000900463ffffffff16806302d05d3f146100a657806312065fe0146100fb578063194307bf1461012457806355e1d6b61461015157806367ea3f6d1461016657806367fe5a0c14610193578063b1c438fe146101c0578063dac96d4a146101ed578063fbfd204514610202578063fd26f03714610257575b005b34156100b157600080fd5b6100b961026c565b604051808273ffffffffffffffffffffffffffffffffffffffff1673ffffffffffffffffffffffffffffffffffffffff16815260200191505060405180910390f35b341561010657600080fd5b61010e610291565b6040518082815260200191505060405180910390f35b341561012f57600080fd5b6101376102b0565b604051808215151515815260200191505060405180910390f35b341561015c57600080fd5b6101646102c3565b005b341561017157600080fd5b6101796105a7565b604051808215151515815260200191505060405180910390f35b341561019e57600080fd5b6101a66105ba565b604051808215151515815260200191505060405180910390f35b34156101cb57600080fd5b6101d36105cd565b604051808215151515815260200191505060405180910390f35b34156101f857600080fd5b6102006105e0565b005b341561020d57600080fd5b6102156106b2565b604051808273ffffffffffffffffffffffffffffffffffffffff1673ffffffffffffffffffffffffffffffffffffffff16815260200191505060405180910390f35b341561026257600080fd5b61026a6106d8565b005b6000809054906101000a900473ffffffffffffffffffffffffffffffffffffffff1681565b60003073ffffffffffffffffffffffffffffffffffffffff1631905090565b600160179054906101000a900460ff1681565b6000600160009054906101000a900473ffffffffffffffffffffffffffffffffffffffff1673ffffffffffffffffffffffffffffffffffffffff163373ffffffffffffffffffffffffffffffffffffffff16148061036d57506000809054906101000a900473ffffffffffffffffffffffffffffffffffffffff1673ffffffffffffffffffffffffffffffffffffffff163373ffffffffffffffffffffffffffffffffffffffff16145b151561037857600080fd5b600160179054906101000a900460ff1615151561039457600080fd5b6000809054906101000a900473ffffffffffffffffffffffffffffffffffffffff16600160009054906101000a900473ffffffffffffffffffffffffffffffffffffffff166103e1610a5c565b808373ffffffffffffffffffffffffffffffffffffffff1673ffffffffffffffffffffffffffffffffffffffff1681526020018273ffffffffffffffffffffffffffffffffffffffff1673ffffffffffffffffffffffffffffffffffffffff16815260200192505050604051809103906000f080151561046057600080fd5b90508073ffffffffffffffffffffffffffffffffffffffff166108fc3073ffffffffffffffffffffffffffffffffffffffff16319081150290604051600060405180830381858888f1935050505015156104b957600080fd5b600160009054906101000a900473ffffffffffffffffffffffffffffffffffffffff1673ffffffffffffffffffffffffffffffffffffffff166000809054906101000a900473ffffffffffffffffffffffffffffffffffffffff1673ffffffffffffffffffffffffffffffffffffffff163073ffffffffffffffffffffffffffffffffffffffff167f8f9f2bdc3b1455f68d37ffe41a3164eb7e56d0caeec0fc961fe6bd6aabf0804e84604051808273ffffffffffffffffffffffffffffffffffffffff1673ffffffffffffffffffffffffffffffffffffffff16815260200191505060405180910390a450565b600160169054906101000a900460ff1681565b600160149054906101000a900460ff1681565b600160159054906101000a900460ff1681565b600160009054906101000a900473ffffffffffffffffffffffffffffffffffffffff1673ffffffffffffffffffffffffffffffffffffffff163373ffffffffffffffffffffffffffffffffffffffff1614151561063c57600080fd5b60018060146101000a81548160ff0219169083151502179055503373ffffffffffffffffffffffffffffffffffffffff163073ffffffffffffffffffffffffffffffffffffffff167f0cb37842db419ea171cc5183b8bbf44cffad4627471de7247b991c649699052e60405160405180910390a3565b600160009054906101000a900473ffffffffffffffffffffffffffffffffffffffff1681565b600160009054906101000a900473ffffffffffffffffffffffffffffffffffffffff1673ffffffffffffffffffffffffffffffffffffffff163373ffffffffffffffffffffffffffffffffffffffff16148061078057506000809054906101000a900473ffffffffffffffffffffffffffffffffffffffff1673ffffffffffffffffffffffffffffffffffffffff163373ffffffffffffffffffffffffffffffffffffffff16145b151561078b57600080fd5b600160179054906101000a900460ff161515156107a757600080fd5b600160009054906101000a900473ffffffffffffffffffffffffffffffffffffffff1673ffffffffffffffffffffffffffffffffffffffff163373ffffffffffffffffffffffffffffffffffffffff1614156108815760018060166101000a81548160ff021916908315150217905550600160009054906101000a900473ffffffffffffffffffffffffffffffffffffffff1673ffffffffffffffffffffffffffffffffffffffff167f5cca47fc45be2c2c68100afd7cd2431116c0c535c159e4f6c7e63934cf9f7aad60405160405180910390a2610956565b6000809054906101000a900473ffffffffffffffffffffffffffffffffffffffff1673ffffffffffffffffffffffffffffffffffffffff163373ffffffffffffffffffffffffffffffffffffffff1614156109555760018060156101000a81548160ff0219169083151502179055506000809054906101000a900473ffffffffffffffffffffffffffffffffffffffff1673ffffffffffffffffffffffffffffffffffffffff167f5cca47fc45be2c2c68100afd7cd2431116c0c535c159e4f6c7e63934cf9f7aad60405160405180910390a25b5b600160169054906101000a900460ff16801561097e5750600160159054906101000a900460ff165b15610a5a57600160009054906101000a900473ffffffffffffffffffffffffffffffffffffffff1673ffffffffffffffffffffffffffffffffffffffff166108fc3073ffffffffffffffffffffffffffffffffffffffff16319081150290604051600060405180830381858888f1935050505015156109fc57600080fd5b60018060176101000a81548160ff0219169083151502179055503073ffffffffffffffffffffffffffffffffffffffff167f0cb7f2c80cbc4263079ffcaa0cdbf888607cbdce2c24ff4e4da6b62cbb7e39c260405160405180910390a25b565b60405161043280610a6d833901905600606060405260405160408061043283398101604052808051906020019091908051906020019091905050816000806101000a81548173ffffffffffffffffffffffffffffffffffffffff021916908373ffffffffffffffffffffffffffffffffffffffff16021790555080600160006101000a81548173ffffffffffffffffffffffffffffffffffffffff021916908373ffffffffffffffffffffffffffffffffffffffff1602179055505050610377806100bb6000396000f30060606040526004361061006d576000357c0100000000000000000000000000000000000000000000000000000000900463ffffffff16806302d05d3f1461006f57806307400d65146100c457806345c63376146100fd5780636d0501f614610136578063fbfd20451461018b575b005b341561007a57600080fd5b6100826101e0565b604051808273ffffffffffffffffffffffffffffffffffffffff1673ffffffffffffffffffffffffffffffffffffffff16815260200191505060405180910390f35b34156100cf57600080fd5b6100fb600480803573ffffffffffffffffffffffffffffffffffffffff16906020019091905050610205565b005b341561010857600080fd5b610134600480803573ffffffffffffffffffffffffffffffffffffffff16906020019091905050610282565b005b341561014157600080fd5b6101496102ff565b604051808273ffffffffffffffffffffffffffffffffffffffff1673ffffffffffffffffffffffffffffffffffffffff16815260200191505060405180910390f35b341561019657600080fd5b61019e610325565b604051808273ffffffffffffffffffffffffffffffffffffffff1673ffffffffffffffffffffffffffffffffffffffff16815260200191505060405180910390f35b6000809054906101000a900473ffffffffffffffffffffffffffffffffffffffff1681565b3073ffffffffffffffffffffffffffffffffffffffff167f6b28ec5496514c9bb0063df3a6ec0ef088ed8266554367c8df1ee20f5e562a2f82604051808273ffffffffffffffffffffffffffffffffffffffff1673ffffffffffffffffffffffffffffffffffffffff16815260200191505060405180910390a250565b3073ffffffffffffffffffffffffffffffffffffffff167f124fa3ac65ebd4c7b43bf696f8c5164598606c830ba6d0c1ac819155dbd2e05a82604051808273ffffffffffffffffffffffffffffffffffffffff1673ffffffffffffffffffffffffffffffffffffffff16815260200191505060405180910390a250565b600260009054906101000a900473ffffffffffffffffffffffffffffffffffffffff1681565b600160009054906101000a900473ffffffffffffffffffffffffffffffffffffffff16815600a165627a7a7230582094686d31b307d7a591586669edff738525eb14acf25b6fa8aa34523dd9bf786f0029a165627a7a723058202ea3d5a593803cf73b297d84d26cf88b9c7c2d0405c686b3b7cbb1376a253ccd0029",
  "source": "import \"./Mediation.sol\";\n\npragma solidity ^0.4.18;\n\ncontract Agreement {\n\n    address public creator;\n    address public contractor;\n    bool public accepted;\n    bool public creatorAccepted;\n    bool public contractorAccepted;\n    bool public terminated;\n\n    // EVENTS\n    event AgreementInitiated(address indexed agreementAddress, address indexed contractorAddress);\n    event AgreementSigned(address indexed signee);\n    event AgreementTerminated(address indexed agreementAddress);\n    event MediationStarted(address indexed agreementAddress, address indexed creator, address indexed contractor, address mediationAddress);\n\n    function Agreement(address _creator, address _contractor) public payable {\n        creator = _creator;\n        contractor = _contractor;\n    }\n\n    function () public payable {\n    }\n\n    function acceptAgreement() public {\n        require(msg.sender == contractor);\n        accepted = true;\n        AgreementInitiated(this, msg.sender);\n    }\n\n    function endAgreement() public {\n\n        require(msg.sender == contractor || msg.sender == creator);\n        require(!terminated);\n\n        if (msg.sender == contractor) {\n            contractorAccepted = true;\n            AgreementSigned(contractor);\n        } else if (msg.sender == creator){\n            creatorAccepted = true;\n            AgreementSigned(creator);\n        }\n\n        if (contractorAccepted && creatorAccepted) {\n            contractor.transfer(this.balance);\n            terminated = true;\n            AgreementTerminated(this);\n        }\n\n    }\n\n    function startMediation() public {\n\n        require(msg.sender == contractor || msg.sender == creator);\n        require(!terminated);\n\n        Mediation mediation = new Mediation(creator,  contractor);\n\n        mediation.transfer(this.balance);\n\n        MediationStarted(this, creator, contractor, mediation);\n\n    }\n\n    function getBalance() public constant returns (uint) {\n        return this.balance;\n    }\n\n}\n",
  "sourcePath": "/Users/WilliamHuang/Documents/agreement_mediation/contracts/Agreement.sol",
  "compiler": {
    "name": "solc",
    "version": "0.4.19+commit.c4cbbb05.Emscripten.clang"
  },
  "schemaVersion": "1.0.1",
  "updatedAt": "2018-02-17T19:12:53.407Z"
}