{
  "contractName": "MediationRegistry",
  "abi": [
    {
      "anonymous": false,
      "inputs": [
        {
          "indexed": true,
          "name": "creator",
          "type": "address"
        },
        {
          "indexed": true,
          "name": "mediated",
          "type": "address"
        },
        {
          "indexed": false,
          "name": "mediationAddress",
          "type": "address"
        }
      ],
      "name": "MediationCreated",
      "type": "event"
    },
    {
      "constant": false,
      "inputs": [
        {
          "name": "_mediated",
          "type": "address"
        }
      ],
      "name": "startMediation",
      "outputs": [
        {
          "name": "",
          "type": "address"
        }
      ],
      "payable": true,
      "stateMutability": "payable",
      "type": "function"
    }
  ],
  "bytecode": "0x6060604052341561000f57600080fd5b6106d28061001e6000396000f300606060405260043610610041576000357c0100000000000000000000000000000000000000000000000000000000900463ffffffff168063a78b25fb14610046575b600080fd5b610072600480803573ffffffffffffffffffffffffffffffffffffffff169060200190919050506100b4565b604051808273ffffffffffffffffffffffffffffffffffffffff1673ffffffffffffffffffffffffffffffffffffffff16815260200191505060405180910390f35b6000806000341180156100f45750600073ffffffffffffffffffffffffffffffffffffffff168373ffffffffffffffffffffffffffffffffffffffff1614155b15156100ff57600080fd5b3383610109610264565b808373ffffffffffffffffffffffffffffffffffffffff1673ffffffffffffffffffffffffffffffffffffffff1681526020018273ffffffffffffffffffffffffffffffffffffffff1673ffffffffffffffffffffffffffffffffffffffff16815260200192505050604051809103906000f080151561018857600080fd5b90508073ffffffffffffffffffffffffffffffffffffffff166108fc349081150290604051600060405180830381858888f1935050505015156101ca57600080fd5b8273ffffffffffffffffffffffffffffffffffffffff163373ffffffffffffffffffffffffffffffffffffffff167f7fbaeeb1c13911582ac3abd3c702aca814c0c42540962a5d4e689bd0f59ebea583604051808273ffffffffffffffffffffffffffffffffffffffff1673ffffffffffffffffffffffffffffffffffffffff16815260200191505060405180910390a380915050919050565b60405161043280610275833901905600606060405260405160408061043283398101604052808051906020019091908051906020019091905050816000806101000a81548173ffffffffffffffffffffffffffffffffffffffff021916908373ffffffffffffffffffffffffffffffffffffffff16021790555080600160006101000a81548173ffffffffffffffffffffffffffffffffffffffff021916908373ffffffffffffffffffffffffffffffffffffffff1602179055505050610377806100bb6000396000f30060606040526004361061006d576000357c0100000000000000000000000000000000000000000000000000000000900463ffffffff16806302d05d3f1461006f57806307400d65146100c457806345c63376146100fd5780636d0501f614610136578063fbfd20451461018b575b005b341561007a57600080fd5b6100826101e0565b604051808273ffffffffffffffffffffffffffffffffffffffff1673ffffffffffffffffffffffffffffffffffffffff16815260200191505060405180910390f35b34156100cf57600080fd5b6100fb600480803573ffffffffffffffffffffffffffffffffffffffff16906020019091905050610205565b005b341561010857600080fd5b610134600480803573ffffffffffffffffffffffffffffffffffffffff16906020019091905050610282565b005b341561014157600080fd5b6101496102ff565b604051808273ffffffffffffffffffffffffffffffffffffffff1673ffffffffffffffffffffffffffffffffffffffff16815260200191505060405180910390f35b341561019657600080fd5b61019e610325565b604051808273ffffffffffffffffffffffffffffffffffffffff1673ffffffffffffffffffffffffffffffffffffffff16815260200191505060405180910390f35b6000809054906101000a900473ffffffffffffffffffffffffffffffffffffffff1681565b3073ffffffffffffffffffffffffffffffffffffffff167f6b28ec5496514c9bb0063df3a6ec0ef088ed8266554367c8df1ee20f5e562a2f82604051808273ffffffffffffffffffffffffffffffffffffffff1673ffffffffffffffffffffffffffffffffffffffff16815260200191505060405180910390a250565b3073ffffffffffffffffffffffffffffffffffffffff167f124fa3ac65ebd4c7b43bf696f8c5164598606c830ba6d0c1ac819155dbd2e05a82604051808273ffffffffffffffffffffffffffffffffffffffff1673ffffffffffffffffffffffffffffffffffffffff16815260200191505060405180910390a250565b600260009054906101000a900473ffffffffffffffffffffffffffffffffffffffff1681565b600160009054906101000a900473ffffffffffffffffffffffffffffffffffffffff16815600a165627a7a7230582094686d31b307d7a591586669edff738525eb14acf25b6fa8aa34523dd9bf786f0029a165627a7a72305820d031ff0bc9247f65ed2955c5095dce8db7f160f80d448d36a51c78790fa365550029",
  "source": "import \"./Mediation.sol\";\n\npragma solidity ^0.4.18;\n\ncontract MediationRegistry {\n\n    event MediationCreated(address indexed creator, address indexed mediated, address mediationAddress);\n\n    function startMediation(address _mediated) public payable returns (address) {\n\n        require(msg.value > 0 && _mediated != address(0));\n\n        Mediation mediation = new Mediation(msg.sender, _mediated);\n\n        mediation.transfer(msg.value);\n\n        MediationCreated(msg.sender, _mediated, mediation);\n\n        return address(mediation);\n\n    }\n\n}\n",
  "sourcePath": "/Users/WilliamHuang/Documents/agreement_mediation/contracts/MediationRegistry.sol",
  "compiler": {
    "name": "solc",
    "version": "0.4.19+commit.c4cbbb05.Emscripten.clang"
  },
  "schemaVersion": "1.0.1",
  "updatedAt": "2018-02-17T19:12:53.408Z"
}