{
  "contractName": "MediationRegistry",
  "abi": [
    {
      "constant": false,
      "inputs": [
        {
          "name": "_mediated",
          "type": "address"
        }
      ],
      "name": "startMediation",
      "outputs": [
        {
          "name": "",
          "type": "address"
        }
      ],
      "payable": true,
      "stateMutability": "payable",
      "type": "function"
    },
    {
      "anonymous": false,
      "inputs": [
        {
          "indexed": true,
          "name": "creator",
          "type": "address"
        },
        {
          "indexed": true,
          "name": "mediated",
          "type": "address"
        },
        {
          "indexed": false,
          "name": "mediationAddress",
          "type": "address"
        }
      ],
      "name": "MediationCreated",
      "type": "event"
    }
  ],
  "bytecode": "0x6060604052341561000f57600080fd5b6105de8061001e6000396000f300606060405260043610610041576000357c0100000000000000000000000000000000000000000000000000000000900463ffffffff168063a78b25fb14610046575b600080fd5b610072600480803573ffffffffffffffffffffffffffffffffffffffff169060200190919050506100b4565b604051808273ffffffffffffffffffffffffffffffffffffffff1673ffffffffffffffffffffffffffffffffffffffff16815260200191505060405180910390f35b6000806000341180156100f45750600073ffffffffffffffffffffffffffffffffffffffff168373ffffffffffffffffffffffffffffffffffffffff1614155b15156100ff57600080fd5b3383610109610264565b808373ffffffffffffffffffffffffffffffffffffffff1673ffffffffffffffffffffffffffffffffffffffff1681526020018273ffffffffffffffffffffffffffffffffffffffff1673ffffffffffffffffffffffffffffffffffffffff16815260200192505050604051809103906000f080151561018857600080fd5b90508073ffffffffffffffffffffffffffffffffffffffff166108fc349081150290604051600060405180830381858888f1935050505015156101ca57600080fd5b8273ffffffffffffffffffffffffffffffffffffffff163373ffffffffffffffffffffffffffffffffffffffff167f7fbaeeb1c13911582ac3abd3c702aca814c0c42540962a5d4e689bd0f59ebea583604051808273ffffffffffffffffffffffffffffffffffffffff1673ffffffffffffffffffffffffffffffffffffffff16815260200191505060405180910390a380915050919050565b60405161033e80610275833901905600606060405260405160408061033e83398101604052808051906020019091908051906020019091905050816000806101000a81548173ffffffffffffffffffffffffffffffffffffffff021916908373ffffffffffffffffffffffffffffffffffffffff16021790555080600160006101000a81548173ffffffffffffffffffffffffffffffffffffffff021916908373ffffffffffffffffffffffffffffffffffffffff1602179055505050610283806100bb6000396000f30060606040526004361061006d576000357c0100000000000000000000000000000000000000000000000000000000900463ffffffff16806302d05d3f1461006f57806307400d65146100c457806345c63376146100fd5780636d0501f614610136578063fbfd20451461018b575b005b341561007a57600080fd5b6100826101e0565b604051808273ffffffffffffffffffffffffffffffffffffffff1673ffffffffffffffffffffffffffffffffffffffff16815260200191505060405180910390f35b34156100cf57600080fd5b6100fb600480803573ffffffffffffffffffffffffffffffffffffffff16906020019091905050610205565b005b341561010857600080fd5b610134600480803573ffffffffffffffffffffffffffffffffffffffff16906020019091905050610208565b005b341561014157600080fd5b61014961020b565b604051808273ffffffffffffffffffffffffffffffffffffffff1673ffffffffffffffffffffffffffffffffffffffff16815260200191505060405180910390f35b341561019657600080fd5b61019e610231565b604051808273ffffffffffffffffffffffffffffffffffffffff1673ffffffffffffffffffffffffffffffffffffffff16815260200191505060405180910390f35b6000809054906101000a900473ffffffffffffffffffffffffffffffffffffffff1681565b50565b50565b600260009054906101000a900473ffffffffffffffffffffffffffffffffffffffff1681565b600160009054906101000a900473ffffffffffffffffffffffffffffffffffffffff16815600a165627a7a72305820bf95e6e3137897f813a19a41500c465abe4152276d4353b8026bbc042e7056680029a165627a7a72305820857066ac82104b76cd047d1f45c57b19278be6e53c829c9e2bb7ae95bec425710029",
  "source": "import \"./Mediation.sol\";\n\npragma solidity ^0.4.18;\n\ncontract MediationRegistry {\n\n    event MediationCreated(address indexed creator, address indexed mediated, address mediationAddress);\n\n    function startMediation(address _mediated) public payable returns (address) {\n\n        require(msg.value > 0 && _mediated != address(0));\n\n        Mediation mediation = new Mediation(msg.sender, _mediated);\n\n        mediation.transfer(msg.value);\n\n        MediationCreated(msg.sender, _mediated, mediation);\n\n        return address(mediation);\n\n    }\n\n}\n",
  "sourcePath": "/Users/WilliamHuang/Developer/Job-Development/BitNation/agreement_mediation/contracts/MediationRegistry.sol",
  "compiler": {
    "name": "solc",
    "version": "0.4.18+commit.9cf6e910.Emscripten.clang"
  },
  "schemaVersion": "1.0.1",
  "updatedAt": "2018-02-14T20:01:02.118Z"
}