{
  "contractName": "Mediation",
  "abi": [
    {
      "constant": true,
      "inputs": [],
      "name": "creator",
      "outputs": [
        {
          "name": "",
          "type": "address"
        }
      ],
      "payable": false,
      "stateMutability": "view",
      "type": "function"
    },
    {
      "constant": true,
      "inputs": [],
      "name": "mediator",
      "outputs": [
        {
          "name": "",
          "type": "address"
        }
      ],
      "payable": false,
      "stateMutability": "view",
      "type": "function"
    },
    {
      "constant": true,
      "inputs": [],
      "name": "contractor",
      "outputs": [
        {
          "name": "",
          "type": "address"
        }
      ],
      "payable": false,
      "stateMutability": "view",
      "type": "function"
    },
    {
      "inputs": [
        {
          "name": "_creator",
          "type": "address"
        },
        {
          "name": "_contractor",
          "type": "address"
        }
      ],
      "payable": true,
      "stateMutability": "payable",
      "type": "constructor"
    },
    {
      "payable": true,
      "stateMutability": "payable",
      "type": "fallback"
    },
    {
      "anonymous": false,
      "inputs": [
        {
          "indexed": true,
          "name": "mediationAddress",
          "type": "address"
        },
        {
          "indexed": false,
          "name": "mediator",
          "type": "address"
        }
      ],
      "name": "MediatorSelected",
      "type": "event"
    },
    {
      "anonymous": false,
      "inputs": [
        {
          "indexed": true,
          "name": "mediationAddress",
          "type": "address"
        },
        {
          "indexed": false,
          "name": "target",
          "type": "address"
        }
      ],
      "name": "MediationEnded",
      "type": "event"
    },
    {
      "constant": false,
      "inputs": [
        {
          "name": "_mediator",
          "type": "address"
        }
      ],
      "name": "SelectMediator",
      "outputs": [],
      "payable": false,
      "stateMutability": "nonpayable",
      "type": "function"
    },
    {
      "constant": false,
      "inputs": [
        {
          "name": "_target",
          "type": "address"
        }
      ],
      "name": "endMediation",
      "outputs": [],
      "payable": false,
      "stateMutability": "nonpayable",
      "type": "function"
    }
  ],
  "bytecode": "0x606060405260405160408061043283398101604052808051906020019091908051906020019091905050816000806101000a81548173ffffffffffffffffffffffffffffffffffffffff021916908373ffffffffffffffffffffffffffffffffffffffff16021790555080600160006101000a81548173ffffffffffffffffffffffffffffffffffffffff021916908373ffffffffffffffffffffffffffffffffffffffff1602179055505050610377806100bb6000396000f30060606040526004361061006d576000357c0100000000000000000000000000000000000000000000000000000000900463ffffffff16806302d05d3f1461006f57806307400d65146100c457806345c63376146100fd5780636d0501f614610136578063fbfd20451461018b575b005b341561007a57600080fd5b6100826101e0565b604051808273ffffffffffffffffffffffffffffffffffffffff1673ffffffffffffffffffffffffffffffffffffffff16815260200191505060405180910390f35b34156100cf57600080fd5b6100fb600480803573ffffffffffffffffffffffffffffffffffffffff16906020019091905050610205565b005b341561010857600080fd5b610134600480803573ffffffffffffffffffffffffffffffffffffffff16906020019091905050610282565b005b341561014157600080fd5b6101496102ff565b604051808273ffffffffffffffffffffffffffffffffffffffff1673ffffffffffffffffffffffffffffffffffffffff16815260200191505060405180910390f35b341561019657600080fd5b61019e610325565b604051808273ffffffffffffffffffffffffffffffffffffffff1673ffffffffffffffffffffffffffffffffffffffff16815260200191505060405180910390f35b6000809054906101000a900473ffffffffffffffffffffffffffffffffffffffff1681565b3073ffffffffffffffffffffffffffffffffffffffff167f6b28ec5496514c9bb0063df3a6ec0ef088ed8266554367c8df1ee20f5e562a2f82604051808273ffffffffffffffffffffffffffffffffffffffff1673ffffffffffffffffffffffffffffffffffffffff16815260200191505060405180910390a250565b3073ffffffffffffffffffffffffffffffffffffffff167f124fa3ac65ebd4c7b43bf696f8c5164598606c830ba6d0c1ac819155dbd2e05a82604051808273ffffffffffffffffffffffffffffffffffffffff1673ffffffffffffffffffffffffffffffffffffffff16815260200191505060405180910390a250565b600260009054906101000a900473ffffffffffffffffffffffffffffffffffffffff1681565b600160009054906101000a900473ffffffffffffffffffffffffffffffffffffffff16815600a165627a7a7230582094686d31b307d7a591586669edff738525eb14acf25b6fa8aa34523dd9bf786f0029",
  "source": "pragma solidity ^0.4.18;\n\ncontract Mediation {\n\n    address public creator;\n    address public contractor;\n    address public mediator;\n\n    event MediatorSelected(address indexed mediationAddress, address mediator);\n    event MediationEnded(address indexed mediationAddress, address target);\n\n    function Mediation(address _creator, address _contractor) public payable {\n        creator = _creator;\n        contractor = _contractor;\n    }\n\n    function () public payable {\n    }\n\n    function SelectMediator(address _mediator) public {\n        // Check if both parties agree to the same mediator\n\n        MediatorSelected(this, _mediator);\n    }\n\n    function endMediation(address _target) public {\n        // Only Callable by the mediator, _target will be the address to send the funds to\n\n        MediationEnded(this, _target);\n    }\n\n}\n",
  "sourcePath": "/Users/WilliamHuang/Documents/agreement_mediation/contracts/Mediation.sol",
  "compiler": {
    "name": "solc",
    "version": "0.4.19+commit.c4cbbb05.Emscripten.clang"
  },
  "schemaVersion": "1.0.1",
  "updatedAt": "2018-02-17T19:12:53.408Z"
}